S01700004763634170706C69636174696F6E322E737265635A
S11300000C942A000C9447000C9447000C9447006D
S11300100C9447000C9447000C9447000C94470040
S11300200C9447000C9447000C9447000C94470030
S11300300C9447000C9447000C9447000C94470020
S11300400C9447000C9447000C9447000C94470010
S11300500C94470011241FBECFE5D8E0DEBFCDBF0E
S113006010E0A0E6B0E0EEE7F4E002C005900D92E7
S1130070A63AB107D9F720E0A6EAB0E001C01D9284
S1130080A63AB207E1F70E9436020C943D020C94A2
S1130090000080E0DCC0282F2770982F9695969555
S11300A096959130D9F138F0923009F46AC09330C2
S11300B009F49AC0CBC0482F50E0FA01EE0FFF1F9D
S11300C0E05AFF4F9081913069F49AB341E050E0D7
S11300D0BA0102C0660F771F2A95E2F79B01292B0C
S11300E02ABBB4C09111B2C09AB361E070E0FB01C5
S11300F002C0EE0FFF1F2A95E2F79F016E2F609555
S113010096239ABB440F551FFA01E05AFF4F918181
S113011091119CC09BB3292B2BBB98C0482F50E056
S1130120FA01EE0FFF1FE05AFF4F9081913069F4FE
S113013097B341E050E0BA0102C0660F771F2A95D9
S1130140E2F79B01292B27BB81C091117FC097B394
S113015061E070E0FB0102C0EE0FFF1F2A95E2F799
S11301609F016E2F6095962397BB440F551FFA018C
S1130170E05AFF4F9181911169C098B3292B28BB94
S113018065C0482F50E0FA01EE0FFF1FE05AFF4F01
S11301909081913069F494B341E050E0BA0102C017
S11301A0660F771F2A95E2F79B01292B24BB4EC0CB
S11301B091114CC094B361E070E0FB0102C0EE0FFA
S11301C0FF1F2A95E2F79F016E2F6095962394BB3B
S11301D0440F551FFA01E05AFF4F9181911136C027
S11301E095B3292B25BB32C0482F50E0FA01EE0FFE
S11301F0FF1FE05AFF4F9081913069F491B341E0C1
S113020050E0BA0102C0660F771F2A95E2F79B01FE
S1130210292B21BB1BC0911119C091B361E070E07F
S1130220FB0102C0EE0FFF1F2A95E2F79F016E2F1C
S11302306095962391BB440F551FFA01E05AFF4F76
S11302409181911103C092B3292B22BB8F5F80321D
S113025008F421CF80E00895813041F028F0823005
S113026039F0833039F007C06BBB05C068BB03C0ED
S113027065BB01C062BB80E00895813011F130F0AC
S11302808230D1F1833009F452C06BC0413059F44B
S11302902BB381E090E002C0880F991F6A95E2F7C2
S11302A0822B8BBB5EC041115CC02BB381E090E01C
S11302B002C0880F991F6A95E2F7809582238BBB51
S11302C050C0413059F428B381E090E002C0880F57
S11302D0991F6A95E2F7822B88BB43C0411141C044
S11302E028B381E090E002C0880F991F6A95E2F775
S11302F08095822388BB35C0413059F425B381E011
S113030090E002C0880F991F6A95E2F7822B85BBA3
S113031028C0411126C025B381E090E002C0880FB7
S1130320991F6A95E2F78095822385BB1AC04130F4
S113033059F422B381E090E002C0880F991F6A95B6
S1130340E2F7822B82BB0DC041110BC022B381E0C6
S113035090E002C0880F991F6A95E2F78095822386
S113036082BB80E00895CF93DF93D82F40E060E014
S113037081E00E943D0140E061E081E00E943D0196
S1130380C0E00EC04D2F50E00C2E02C0559547958D
S11303900A94E2F741706C2F80E00E943D01CF5F28
S11303A0C83080F341E062E081E00E943D018FE9C2
S11303B09FE00197F1F700C0000040E062E081E0B7
S11303C00E943D0180E0DF91CF910895CF93C82F23
S11303D041E060E081E00E943D0140E061E081E0B5
S11303E00E943D016C2F80E00E942C0141E062E0FC
S11303F081E00E943D018FE99FE00197F1F700C081
S1130400000040E062E081E00E943D0180E0CF9185
S113041008950E9449002FEF89EF90E02150804019
S11304209040E1F700C0000088E30E94B3018CE033
S11304300E94B30181E00E94B30180E008950F930C
S11304401F93CF93009729F40CC00E94E601CF5F5D
S113045002C08C01C0E0F801EC0FF11D8081811114
S1130460F4CF80E0CF911F910F9108950E9409026B
S111047080EA90E00E941F02FFCFF894FFCFB5
S113047E010101010101010101010101010101015A
S113048E010101010101010101010101010101014A
S113049E010101010101010101010101010101013A
S11304AE010101010101010101010101010101012A
S10904BE66616479000090
S9030000FC
