S01700004763634170706C69636174696F6E352E7372656357
S11300000C942A000C9447000C9447000C9447006D
S11300100C9447000C9447000C9447000C94470040
S11300200C9447000C9447000C9447000C94470030
S11300300C9447000C9447000C9447000C94470020
S11300400C9447000C9447000C9447000C94470010
S11300500C94470011241FBECFE5D8E0DEBFCDBF0E
S113006010E0A0E6B0E0E0E7F5E002C005900D92F4
S1130070A43CB107D9F720E0A4ECB0E001C01D9284
S1130080A43CB207E1F70E9496020C94B6020C94C9
S1130090000080E0DCC0282F2770982F9695969555
S11300A096959130D9F138F0923009F46AC09330C2
S11300B009F49AC0CBC0482F50E0FA01EE0FFF1F9D
S11300C0E859FF4F9081913069F49AB341E050E0D0
S11300D0BA0102C0660F771F2A95E2F79B01292B0C
S11300E02ABBB4C09111B2C09AB361E070E0FB01C5
S11300F002C0EE0FFF1F2A95E2F79F016E2F609555
S113010096239ABB440F551FFA01E859FF4F91817A
S113011091119CC09BB3292B2BBB98C0482F50E056
S1130120FA01EE0FFF1FE859FF4F9081913069F4F7
S113013097B341E050E0BA0102C0660F771F2A95D9
S1130140E2F79B01292B27BB81C091117FC097B394
S113015061E070E0FB0102C0EE0FFF1F2A95E2F799
S11301609F016E2F6095962397BB440F551FFA018C
S1130170E859FF4F9181911169C098B3292B28BB8D
S113018065C0482F50E0FA01EE0FFF1FE859FF4FFA
S11301909081913069F494B341E050E0BA0102C017
S11301A0660F771F2A95E2F79B01292B24BB4EC0CB
S11301B091114CC094B361E070E0FB0102C0EE0FFA
S11301C0FF1F2A95E2F79F016E2F6095962394BB3B
S11301D0440F551FFA01E859FF4F9181911136C020
S11301E095B3292B25BB32C0482F50E0FA01EE0FFE
S11301F0FF1FE859FF4F9081913069F491B341E0BA
S113020050E0BA0102C0660F771F2A95E2F79B01FE
S1130210292B21BB1BC0911119C091B361E070E07F
S1130220FB0102C0EE0FFF1F2A95E2F79F016E2F1C
S11302306095962391BB440F551FFA01E859FF4F6F
S11302409181911103C092B3292B22BB8F5F80321D
S113025008F421CF80E00895813011F130F082302C
S1130260D1F1833009F452C06BC0413059F42BB33F
S113027081E090E002C0880F991F6A95E2F7822B13
S11302808BBB5EC041115CC02BB381E090E002C027
S1130290880F991F6A95E2F7809582238BBB50C023
S11302A0413059F428B381E090E002C0880F991FCF
S11302B06A95E2F7822B88BB43C0411141C028B341
S11302C081E090E002C0880F991F6A95E2F780955B
S11302D0822388BB35C0413059F425B381E090E0D6
S11302E002C0880F991F6A95E2F7822B85BB28C04C
S11302F0411126C025B381E090E002C0880F991F08
S11303006A95E2F78095822385BB1AC0413059F47F
S113031022B381E090E002C0880F991F6A95E2F74A
S1130320822B82BB0DC041110BC022B381E090E04F
S113033002C0880F991F6A95E2F78095822382BBD9
S113034080E00895CF93DF93D82F40E060E081E010
S11303500E942C0140E061E081E00E942C01C0E099
S11303600EC04D2F50E00C2E02C0559547950A94AF
S1130370E2F741706C2F80E00E942C01CF5FC830FF
S113038080F341E062E081E00E942C0183EF91E080
S11303900197F1F700C0000040E062E081E00E94B4
S11303A02C0180E0DF91CF9108950F931F93CF9399
S11303B0DF93D82F08EA10E041E0F80163818281DD
S11303C00E942C0140E0F801658184810E942C0187
S11303D0C0E01CC08C2F90E04D2F50E00C2E02C0CA
S11303E0559547950A94E2F74170DC01AA0FBB1FAB
S11303F0A855BF4FFC013396EE0FFF1FE855FF4F82
S113040017966C9180810E942C01CF5FC83010F345
S1130410E8EAF0E0D181C08141E06D2F8C2F0E9489
S11304202C0183EF91E00197F1F700C0000040E058
S11304306D2F8C2F0E942C0180E0DF91CF911F91B2
S11304400F910895CF93DF930E9449008FE097E2C4
S11304500197F1F700C00000CEEBD0E02C8130E032
S1130460A901440F551F440F551F9881292F30E0CF
S1130470220F331F220F331F220F331F9D8160E190
S1130480969FC0011124242B822B80620E94A2011A
S11304902B819A81892F90E0880F991F822B8C6081
S11304A00E94A20181E00E94A20180E0DF91CF912D
S11304B00895CF93882329F0813029F4605CC0E04B
S11304C004C0C0E002C060E0C1E080E8860F0E9482
S11304D0A2018C2FCF910895EF92FF920F931F9357
S11304E0CF93DF938C01D62FF42EE22E862F880F24
S11304F0880F880F805C0E94A201C0E007C0F80149
S1130500EC0FF11D80810E94D501CF5FC830B8F394
S11305106E2D8F2D0E9459028D2F0E94D501DF91DF
S1130520CF911F910F91FF90EF900895CF93DF9398
S1130530CDB7DEB728970FB6F894DEBF0FBECDBF98
S113054088E0E0E6F0E0DE01119601900D928A95D4
S1130550E1F70E94220220E030E040E050E060E059
S113056070E0CE0101960E946C02FFCFF894FFCF99
S11305700100030311111F1F010101010101010108
S11305800101010101010101010101010101010157
S11305900101010101010101010101010101010147
S11305A00101010101010101010101010101010137
S11305B00101010101010101010201000101000029
S11305C00001000200030004000500060007010109
S10705D00000000122
S9030000FC
