:100000000C942A000C9434000C9434000C943400AA
:100010000C9434000C9434000C9434000C94340090
:100020000C9434000C9434000C9434000C94340080
:100030000C9434000C9434000C9434000C94340070
:100040000C9434000C9434000C9434000C94340060
:100050000C94340011241FBECFE5D8E0DEBFCDBF25
:100060000E94BC010C94E1010C940000CF93C82FB6
:1000700040E060E082E00E94230140E061E082E035
:100080000E9423016C2F80E00E94A60141E062E003
:1000900082E00E94230183EF91E00197F1F700C015
:1000A000000040E062E082E00E942301CF910895C9
:1000B000CF93C82F41E060E082E00E94230140E03E
:1000C00061E082E00E9423016C2F80E00E94A60183
:1000D00041E062E082E00E94230183EF91E001971A
:1000E000F1F700C0000040E062E082E00E942301DE
:1000F000CF9108958FE097E20197F1F700C00000DB
:1001000088E30E9436008CE00E94360081E00E9465
:1001100036000895683008F078C041113CC0813045
:1001200099F028F08230E9F0833041F170C02AB3B1
:1001300081E090E002C0880F991F6A95E2F78095F0
:1001400082238ABB80E0089527B381E090E002C05B
:10015000880F991F6A95E2F78095822387BB80E01C
:10016000089524B381E090E002C0880F991F6A953A
:10017000E2F78095822384BB80E0089521B381E07B
:1001800090E002C0880F991F6A95E2F7809582235C
:1001900081BB80E008954130E1F5813091F028F095
:1001A0008230D9F0833029F136C02AB381E090E063
:1001B00002C0880F991F6A95E2F7822B8ABB80E004
:1001C000089527B381E090E002C0880F991F6A95D7
:1001D000E2F7822B87BB80E0089524B381E090E0B2
:1001E00002C0880F991F6A95E2F7822B84BB80E0DA
:1001F000089521B381E090E002C0880F991F6A95AD
:10020000E2F7822B81BB80E0089581E0089581E0D0
:10021000089581E0089581E00895813049F028F043
:10022000823049F0833051F00CC06ABB80E0089501
:1002300067BB80E0089564BB80E0089561BB80E007
:10024000089581E00895683008F078C041113CC0FD
:10025000813099F028F08230E9F0833041F170C0AC
:100260002BB381E090E002C0880F991F6A95E2F7F6
:10027000809582238BBB80E0089528B381E090E0D5
:1002800002C0880F991F6A95E2F78095822388BB88
:1002900080E0089525B381E090E002C0880F991FA7
:1002A0006A95E2F78095822385BB80E0089522B3AA
:1002B00081E090E002C0880F991F6A95E2F780956F
:1002C000822382BB80E008954130E1F5813091F0D6
:1002D00028F08230D9F0833029F136C02BB381E089
:1002E00090E002C0880F991F6A95E2F7822B8BBBC2
:1002F00080E0089528B381E090E002C0880F991F44
:100300006A95E2F7822B88BB80E0089525B381E0EF
:1003100090E002C0880F991F6A95E2F7822B85BB97
:1003200080E0089522B381E090E002C0880F991F19
:100330006A95E2F7822B82BB80E0089581E0089500
:1003400081E0089581E0089581E00895813049F0C9
:1003500028F0823049F0833051F00CC06BBB80E054
:10036000089568BB80E0089565BB80E0089562BB96
:1003700080E0089581E008956FEF80E00E940D0114
:1003800041E060E082E00E948A0041E061E082E0BA
:100390000E948A0041E062E082E00E948A000E949E
:1003A0007A0081E40E9458008DE40E94580087E49E
:1003B0000E94580081E40E94580084E40E94580082
:0603C000FFCFF894FFCF0F
:00000001FF
