S01700004763634170706C69636174696F6E332E7372656359
S11300000C942A000C943F000C943F000C943F0085
S11300100C943F000C943F000C943F000C943F0060
S11300200C943F000C943F000C943F000C943F0050
S11300300C943F000C943F000C943F000C943F0040
S11300400C943F000C943F000C943F000C943F0030
S11300500C943F0011241FBECFE5D8E0DEBFCDBF16
S113006010E0A0E6B0E0E0E4F8E002C005900D92F4
S1130070A63AB107D9F70E9417040C941E040C94F5
S1130080000090E080E0D3C1292F2695269526957F
S1130090392F3770213009F472C038F0223009F456
S11300A0D8C0233009F43FC1A8C1492F50E0FA0158
S11300B0EE0FFF1FE05AFF4F2081222319F0213059
S11300C081F19DC1440F551FFA01E05AFF4F218170
S11300D0222319F0213099F094C16AB341E050E031
S11300E0FA0102C0EE0FFF1F3A95E2F79F01209537
S11300F0362F32233ABB3BB323232BBB97C16AB3BE
S113010041E050E0FA0102C0EE0FFF1F3A95E2F71A
S11301109F013E2F309536233ABB3BB3232B2BBB99
S113012085C1440F551FFA01E05AFF4F2181223047
S113013019F0233099F067C16AB341E050E0FA0145
S113014002C0EE0FFF1F3A95E2F79F01362F322BC4
S11301503ABB3BB3209523232BBB68C16AB341E070
S113016050E0FA0102C0EE0FFF1F3A95E2F79F013B
S1130170362F322B3ABB3BB3232B2BBB57C1492F12
S113018050E0FA01EE0FFF1FE05AFF4F20812223B7
S113019019F0213081F139C1440F551FFA01E05A99
S11301A0FF4F2181222319F0213099F030C167B328
S11301B041E050E0FA0102C0EE0FFF1F3A95E2F76A
S11301C09F012095362F322337BB38B3232328BB16
S11301D02DC167B341E050E0FA0102C0EE0FFF1FEA
S11301E03A95E2F79F013E2F3095362337BB38B35B
S11301F0232B28BB1BC1440F551FFA01E05AFF4FA4
S11302002181223019F0233099F003C167B341E012
S113021050E0FA0102C0EE0FFF1F3A95E2F79F018A
S1130220362F322B37BB38B32095232328BBFEC08F
S113023067B341E050E0FA0102C0EE0FFF1F3A95A8
S1130240E2F79F01362F322B37BB38B3232B28BB61
S1130250EDC0492F50E0FA01EE0FFF1FE05AFF4FA7
S11302602081222319F0213081F1D5C0440F551F7C
S1130270FA01E05AFF4F2181222319F0213099F02D
S1130280CCC064B341E050E0FA0102C0EE0FFF1F9E
S11302903A95E2F79F012095362F322334BB35B3CC
S11302A0232325BBC3C064B341E050E0FA0102C07C
S11302B0EE0FFF1F3A95E2F79F013E2F309536234C
S11302C034BB35B3232B25BBB1C0440F551FFA01F2
S11302D0E05AFF4F2181223019F0233099F09FC05A
S11302E064B341E050E0FA0102C0EE0FFF1F3A95FB
S11302F0E2F79F01362F322B34BB35B320952323ED
S113030025BB94C064B341E050E0FA0102C0EE0F93
S1130310FF1F3A95E2F79F01362F322B34BB35B3DA
S1130320232B25BB83C0492F50E0FA01EE0FFF1F9A
S1130330E05AFF4F2081222319F0213081F171C04E
S1130340440F551FFA01E05AFF4F2181222319F06F
S1130350213099F068C061B341E050E0FA0102C075
S1130360EE0FFF1F3A95E2F79F012095362F3223B7
S113037031BB32B3232322BB59C061B341E050E007
S1130380FA0102C0EE0FFF1F3A95E2F79F013E2FDC
S11303903095362331BB32B3232B22BB47C0440FE5
S11303A0551FFA01E05AFF4F2181223019F0233002
S11303B099F03BC061B341E050E0FA0102C0EE0F96
S11303C0FF1F3A95E2F79F01362F322B31BB32B330
S11303D02095232322BB2AC061B341E050E0FA01F7
S11303E002C0EE0FFF1F3A95E2F79F01362F322B22
S11303F031BB32B3232B22BB19C081E017C081E08B
S113040015C081E013C081E011C081E00FC081E01C
S11304100DC081E00BC081E009C081E007C081E02C
S113042005C081E003C081E001C081E09F5F90329C
S113043008F42ACE0895982F9695969596958770E8
S11304409130A1F028F09230F9F0933059F138C08E
S11304504BB321E030E0B90102C0660F771F8A95E3
S1130460E2F7CB01842B8BBB80E0089548B321E0F5
S113047030E0B90102C0660F771F8A95E2F7CB011D
S1130480842B88BB80E0089545B321E030E0B901B6
S113049002C0660F771F8A95E2F7CB01842B85BBD8
S11304A080E0089542B321E030E0B90102C0660F54
S11304B0771F8A95E2F7CB01842B82BB80E00895F5
S11304C081E00895982F969596959695877091302A
S11304D0A9F028F0923009F1933071F13CC04BB38C
S11304E021E030E0B90102C0660F771F8A95E2F778
S11304F0CB01809584238BBB80E0089548B321E031
S113050030E0B90102C0660F771F8A95E2F7CB018C
S11305108095842388BB80E0089545B321E030E0D2
S1130520B90102C0660F771F8A95E2F7CB01809567
S1130530842385BB80E0089542B321E030E0B90113
S113054002C0660F771F8A95E2F7CB01809584235A
S113055082BB80E0089581E008958BE00E941B0235
S11305608FEC97E00197F1F700C000008BE00E9448
S113057062020895CF93C82F89E00E941B028AE08B
S11305800E9462028C2F881F8827881F19F08130EF
S113059029F007C087E00E94620203C087E00E943E
S11305A01B02C6FB882780F9C6FF03C0813029F0EF
S11305B007C086E00E94620203C086E00E941B021C
S11305C0C5FB882780F9C5FF03C0813029F007C027
S11305D085E00E94620203C085E00E941B02C4FB06
S11305E0882780F9C4FF03C0813029F007C084E064
S11305F00E94620203C084E00E941B020E94AD02BA
S11306008FE99FE00197F1F700C00000C3FB882742
S113061080F9C3FF03C0813029F007C087E00E943E
S1130620620203C087E00E941B02C2FB882780F994
S1130630C2FF03C0813029F007C086E00E94620235
S113064003C086E00E941B02C1FB882780F9C1FF1A
S113065003C0813029F007C085E00E94620203C014
S113066085E00E941B028C2F8170C0FF03C0813083
S113067029F007C084E00E94620203C084E00E9463
S11306801B020E94AD028FE99FE00197F1F700C0C1
S11306900000CF910895CF93C82F89E00E94620291
S11306A08AE00E9462028C2F881F8827881F19F015
S11306B0813029F007C087E00E94620203C087E00E
S11306C00E941B02C6FB882780F9C6FF03C0813045
S11306D029F007C086E00E94620203C086E00E94FF
S11306E01B02C5FB882780F9C5FF03C0813029F0B0
S11306F007C085E00E94620203C085E00E941B02DD
S1130700C4FB882780F9C4FF03C0813029F007C0E7
S113071084E00E94620203C084E00E941B020E94E3
S1130720AD028FE99FE00197F1F700C00000C3FB21
S1130730882780F9C3FF03C0813029F007C087E010
S11307400E94620203C087E00E941B02C2FB88274A
S113075080F9C2FF03C0813029F007C086E00E94FF
S1130760620203C086E00E941B02C1FB882780F955
S1130770C1FF03C0813029F007C085E00E946202F6
S113078003C085E00E941B028C2F8170C0FF03C050
S1130790813029F007C084E00E94620203C084E033
S11307A00E941B020E94AD028FE99FE00197F1F7BE
S11307B000C0000080E0CF9108950E9441002FEF17
S11307C080E792E0215080409040E1F700C00000B3
S11307D083E30E944B0382E30E944B0388E20E945E
S11307E04B038CE00E944B0381E00E944B0386E0A4
S11307F00E944B0382E00E944B038FE99FE0019724
S1130800F1F700C0000008950F931F93CF938C015C
S1130810C0E003C00E94BA02CF5FF801EC0FF11DE3
S113082080818111F7CFCF911F910F9108950E947C
S1130830DD0380EA90E00E940404FFCFF894FFCF28
S1130840010201020102010201020102010201028C
S1130850010201030102010201020102010201027B
S1130860010201020102010201020102010201026C
S1130870010201020102010201020102000001025F
S1090880666164790000CA
S9030000FC
