S00B00004C44522E7372656337
S11300000C942A000C9447000C9447000C9447006D
S11300100C9447000C9447000C9447000C94470040
S11300200C9447000C9447000C9447000C94470030
S11300300C9447000C9447000C9447000C94470020
S11300400C9488000C9447000C9447000C944700CF
S11300500C94470011241FBECFE5D8E0DEBFCDBF0E
S113006010E0A0E6B0E0E2EBF3E002C005900D92F0
S1130070A03AB107D9F720E0A0EAB0E001C01D9290
S1130080A23AB207E1F70E94BE010C94D7010C9486
S1130090000097B19F73892B87B9089597B1907E1B
S11300A0892B87B9089596B1987F892B86B90895CD
S11300B096B19F77892B86B908956115710531F141
S11300C096B1906496B996B1811109C087B18062E6
S11300D087B985B190E0FB019183808312C087B119
S11300E08F7D87B984B1282F30E0FB0131832083D1
S11300F095B1892F90E0982F8827822B932B918399
S1130100808386B1806186B980E0089581E0089596
S11301101F920F920FB60F9211242F933F934F9378
S11301205F936F937F938F939F93AF93BF93EF935B
S1130130FF93E091A000F091A1000995FF91EF9148
S1130140BF91AF919F918F917F916F915F914F91EB
S11301503F912F910F900FBE0F901F90189580E440
S11301600E94490087E00E94530080E80E945800E2
S1130170089580E0EDC0282F2770982F96959695C6
S11301809695913009F43FC038F0923009F472C06A
S1130190933009F4A6C0DBC0482F50E0FA01EE0FFB
S11301A0FF1FE05AFF4F9081913069F49AB341E008
S11301B050E0BA0102C0660F771F2A95E2F79B014F
S11301C0292B2ABBC4C09111C2C09AB361E070E06C
S11301D0FB0102C0EE0FFF1F2A95E2F79F016E2F6D
S11301E0609596239ABB440F551FFA01E05AFF4FBE
S11301F09181911104C09BB3292B2BBBA8C09BB345
S113020069236BBBA4C0482F50E0FA01EE0FFF1F17
S1130210E05AFF4F9081913069F497B341E050E088
S1130220BA0102C0660F771F2A95E2F79B01292BBA
S113023027BB8DC091118BC097B361E070E0FB01C7
S113024002C0EE0FFF1F2A95E2F79F016E2F609503
S1130250962397BB440F551FFA01E05AFF4F918133
S1130260911104C098B3292B28BB71C098B369239A
S113027068BB6DC0482F50E0FA01EE0FFF1FE05A33
S1130280FF4F9081913069F494B341E050E0BA019A
S113029002C0660F771F2A95E2F79B01292B24BB26
S11302A056C0911154C094B361E070E0FB0102C0E8
S11302B0EE0FFF1F2A95E2F79F016E2F609596239C
S11302C094BB440F551FFA01E05AFF4F91819111DD
S11302D004C095B3292B25BB3AC095B3692365BBEC
S11302E036C0482F50E0FA01EE0FFF1FE05AFF4FCF
S11302F09081913069F491B341E050E0BA0102C0B9
S1130300660F771F2A95E2F79B01292B21BB1FC09B
S113031091111DC091B361E070E0FB0102C0EE0FCA
S1130320FF1F2A95E2F79F016E2F6095962391BBDC
S1130330440F551FFA01E05AFF4F9181911104C0F7
S113034092B3292B22BB03C092B3692362BB8F5F94
S1130350803208F410CF80E00895813041F028F015
S1130360823039F0833039F007C06BBB05C068BBFD
S113037003C065BB01C062BB80E00895CF93DF93E7
S113038000D0CDB7DEB70E94AF000E94B90081E073
S11303900E944E001A821982BE016F5F7F4F80E077
S11303A00E945D00698182E00E94AD01F5CFF8945E
S10503B0FFCF79
S11303B20101000101010101010101010101010128
S11303C20100010001010101010101010101010119
S11303D20101010101010101010101010101010107
S11303E201010101010101010101010101010101F7
S9030000FC
