S01000005350495F544553542E7372656389
S11300000C942A000C943F000C943F000C943F0085
S11300100C943F000C943F000C943F000C943F0060
S11300200C943F000C943F000C943F000C943F0050
S11300300C943F000C943F000C943F000C943F0040
S11300400C943F000C943F000C943F000C943F0030
S11300500C943F0011241FBECFE5D8E0DEBFCDBF16
S113006010E0A0E6B0E0ECE9F2E002C005900D92E9
S1130070A03AB107D9F70E9424010C944C010C94C6
S1130080000080E0DCC0282F2770982F9695969565
S113009096959130D9F138F0923009F46AC09330D2
S11300A009F49AC0CBC0482F50E0FA01EE0FFF1FAD
S11300B0E05AFF4F9081913069F49AB341E050E0E7
S11300C0BA0102C0660F771F2A95E2F79B01292B1C
S11300D02ABBB4C09111B2C09AB361E070E0FB01D5
S11300E002C0EE0FFF1F2A95E2F79F016E2F609565
S11300F096239ABB440F551FFA01E05AFF4F918192
S113010091119CC09BB3292B2BBB98C0482F50E066
S1130110FA01EE0FFF1FE05AFF4F9081913069F40E
S113012097B341E050E0BA0102C0660F771F2A95E9
S1130130E2F79B01292B27BB81C091117FC097B3A4
S113014061E070E0FB0102C0EE0FFF1F2A95E2F7A9
S11301509F016E2F6095962397BB440F551FFA019C
S1130160E05AFF4F9181911169C098B3292B28BBA4
S113017065C0482F50E0FA01EE0FFF1FE05AFF4F11
S11301809081913069F494B341E050E0BA0102C027
S1130190660F771F2A95E2F79B01292B24BB4EC0DB
S11301A091114CC094B361E070E0FB0102C0EE0F0A
S11301B0FF1F2A95E2F79F016E2F6095962394BB4B
S11301C0440F551FFA01E05AFF4F9181911136C037
S11301D095B3292B25BB32C0482F50E0FA01EE0F0E
S11301E0FF1FE05AFF4F9081913069F491B341E0D1
S11301F050E0BA0102C0660F771F2A95E2F79B010F
S1130200292B21BB1BC0911119C091B361E070E08F
S1130210FB0102C0EE0FFF1F2A95E2F79F016E2F2C
S11302206095962391BB440F551FFA01E05AFF4F86
S11302309181911103C092B3292B22BB8F5F80322D
S113024008F421CF80E008950E9441000E942C010F
S113025085E00E944801FCCF8DB180618DB98DB1DC
S113026080688DB98DB18F7D8DB98DB188608DB960
S11302708DB18B7F8DB98DB181608DB98DB18D7F3D
S11302808DB98EB18E7F8EB98DB180648DB908958C
S10F02908FB98EB18FB10895F894FFCFA0
S113029C010101010101010101010101010101013E
S11302AC0000000001010101000001010001010135
S11302BC010101010101010101010101010101011E
S11302CC010101010101010101010101010101010E
S9030000FC
